:100000000C94CE180C94FF180C94FF180C94FF1845
:100010000C94FF180C94FF180C94FF180C94FF1804
:100020000C94FF180C94FF180C94FF180C94FF18F4
:100030000C94FF180C94FF180C94FF180C94FF18E4
:100040000C94FF180C9458A60C94FF180C94FF18ED
:100050000C94FF180C94FF180C94ADBC0D94B000D8
:100060000C94FF180C946D2F0C94FF180C94FF182F
:100070000C94FF180C94FF180C94FF180C94FF18A4
:100080000C94C2A10C94FF180C94FF180C94FF1848
:100090000C94FF180C94FF180C94FF180C94A2F900
:1000A0000C94FF180C94FF180C94EFA10C94FF18FB
:1000B0000C94FF180C94FF180C94FF180C941CA2BD
:1000C0000C94FF180C94FF180C94FF180C94FF1854
:1000D0000C94FF180C94FF180C94FF180C94FF1844
:1000E0000C94FF1829BD39BD58BD68BD83BD88BDBE
:1000F0008BBD90BD93BD98BD9BBDA0BDAABDF900B1
:10010000DD000D01FB00FD00DF00D700E500FF0072
:10011000E7000501D10009010301DF00D500D3008C
:10012000F3000F01EB00D9000B010101CF00ED003E
:10013000E900E100F500C900F100DB00E300CF00B9
:10014000EF00CB000701084AD73B3BCE016E84BCD1
:10015000BFFDC12F3D6C74319ABD56833DDA3D0021
:10016000C77F11BED9E4BB4C3E916BAAAABE00006A
:1001700000803F05A84CCDB2D44EB93836A9020C48
:1001800050B9918688083CA6AAAA2ABE0000008021
:100190003F000D94A4020D94BC020D94AF000D9489
:1001A000C5020D9429020D9456020D944C020D9433
:1001B000FB010D947D020D94AE020D94D8010D94B7
:1001C0006A020D949C020D94B2020D9403020D94E8
:1001D00015020D9496020D948E020D9492020D94C8
:1001E000B8020D94AA020D9460020D94A0020D9421
:1001F0006A030D94D3010D94E7010D94F1010D9460
:100200000B020D9487020D9442020D941F020D946F
:10021000C0020D9438020D9481020D94DD010D94FD
:100220008B024D383420582059205A204500436114
:100230006E6E6F7420656E7465722073756264698A
:10024000723A20006175746F25692E6700657272BD
:100250006F722077726974696E6720746F206669A7
:100260006C65004E6F74205344207072696E74691F
:100270006E67005344207072696E74696E67206205
:10028000797465200044656C6574696F6E206661E1
:10029000696C65642C2046696C653A200046696C7F
:1002A000652064656C657465643A006F70656E20E6
:1002B0006661696C65642C2046696C653A2000575C
:1002C000726974696E6720746F2066696C653A2084
:1002D000002E0A006F70656E206661696C65642C83
:1002E0002046696C653A20002E0A006F70656E200A
:1002F0006661696C65642C2046696C653A2000462D
:10030000696C652073656C6563746564002053696E
:100310007A653A200046696C65206F70656E656489
:100320003A20006F70656E206661696C65642C20F0
:1003300046696C653A20004E6F7720667265736877
:100340002066696C653A20004E6F7720646F696E95
:10035000672066696C653A20002220706F73002266
:1003600020706172656E743A2200535542524F55A7
:1003700054494E452043414C4C207461726765746A
:100380003A22004B494C4C45442E00747279696EF8
:100390006720746F2063616C6C207375622D6763D6
:1003A0006F64652066696C65732077697468207472
:1003B0006F6F206D616E79206C6576656C732E2091
:1003C0004D4158206C6576656C2069733A004D325A
:1003D00034004D323320257300534420636172642E
:1003E000206F6B006F70656E526F6F74206661696D
:1003F0006C656400766F6C756D652E696E6974202E
:100400006661696C656400534420696E6974206696
:1004100061696C0020204D383531205A005A2D502A
:10042000726F6265204F666673657420286D6D2952
:100430003A0020204D3230302044300020204D3210
:1004400030302044002044697361626C656400466A
:10045000696C616D656E742073657474696E677321
:100460003A0020440020490020204D3330342050F1
:1004700000204C0020430020440020490020204D53
:100480003330312050005049442073657474696ED4
:1004900067733A0020460020420020204D31343559
:1004A00020533120480020460020420020204D31BA
:1004B00034352053302048004D6174657269616C99
:1004C0002068656174757020706172616D65746516
:1004D00072733A00205A0020590020204D323036E5
:1004E000205800486F6D65206F666673657420281C
:1004F0006D6D293A00204500205A00205800204206
:100500000020540020204D323035205300416476C5
:10051000616E636564207661726961626C65733ACD
:1005200020533D4D696E2066656564726174652077
:10053000286D6D2F73292C20543D4D696E207472E7
:100540006176656C20666565647261746520286DEE
:100550006D2F73292C20423D6D696E696D756D207C
:100560007365676D656E742074696D6520286D73A1
:10057000292C20583D6D6178696D756D2058592082
:100580006A65726B20286D6D2F73292C20205A3DCF
:100590006D6178696D756D205A206A65726B2028CF
:1005A0006D6D2F73292C2020453D6D6178696D7527
:1005B0006D2045206A65726B20286D6D2F732900B0
:1005C00020540020520020204D3230342050004171
:1005D0006363656C65726174696F6E733A20503D38
:1005E0007072696E74696E672C20523D7265747208
:1005F00061637420616E6420543D74726176656C31
:1006000000204500205A0020590020204D32303172
:100610002058004D6178696D756D20416363656C8C
:1006200065726174696F6E20286D6D2F7332293A7F
:1006300000204500205A0020590020204D32303340
:100640002058004D6178696D756D2066656564722E
:100650006174657320286D6D2F73293A0020450061
:10066000205A0020590020204D3932205800537460
:100670006570732070657220756E69743A00486108
:100680007264636F6465642044656661756C742090
:1006900053657474696E6773204C6F6164656400A0
:1006A00020627974657329002073746F7265642009
:1006B00073657474696E67732072657472696576A8
:1006C000656420280020627974657329005365747D
:1006D00074696E67732053746F72656420280045D7
:1006E00072726F722077726974696E6720746F20FE
:1006F000454550524F4D21005072696E746572200D
:1007000068616C7465642E206B696C6C28292063A9
:10071000616C6C656421004B494C4C45442E004B88
:10072000494C4C45442E0020746F6F206C6F6E67EF
:1007300020657874727573696F6E20707265766566
:100740006E7465640020636F6C64206578747275E4
:1007500073696F6E2070726576656E746564006F84
:100760006B00526573656E643A20003A20007A5F30
:100770006D61783A20007A5F6D696E3A20005A20E8
:100780004F6666736574004F6666736574732061A7
:100790006B746976004572723A20546F6F206661FF
:1007A000722100546F6F206661722066726F6D2037
:1007B0007265666572656E636520706F696E740040
:1007C00053657474696E672054726176656C20415C
:1007D0006363656C65726174696F6E3A200053657E
:1007E0007474696E6720526574726163742041632A
:1007F00063656C65726174696F6E3A20005365744D
:1008000074696E67205072696E7420416363656C11
:1008100065726174696F6E3A200053657474696E15
:1008200067205072696E7420616E64205472617624
:10083000656C20416363656C65726174696F6E3AC3
:1008400020004D31343520533C696E6465783E207C
:100850006F7574206F662072616E67652028302D79
:100860003129007A5F6D61783A20007A5F6D696E98
:100870003A2000795F6D61783A2000785F6D696E8B
:100880003A2000205A3A0020593A0020436F756EF2
:100890007420583A200020453A00205A3A00205946
:1008A0003A00583A004649524D574152455F4E4131
:1008B0004D453A4D61726C696E20312E312E302DCE
:1008C00052433620284769746875622920534F5572
:1008D0005243455F434F44455F55524C3A687474E8
:1008E00070733A2F2F6769746875622E636F6D2F6E
:1008F0004D61726C696E4669726D776172652F4DDC
:1009000061726C696E2050524F544F434F4C5F568A
:10091000455253494F4E3A312E30204D41434849BC
:100920004E455F545950453A3344205072696E74B5
:1009300065722045585452554445525F434F554EB9
:10094000543A3120555549443A6365646532613201
:10095000662D343161322D343734382D39623132DD
:100960002D6335356336326633363766660A0033B3
:1009700044205072696E746572204175732E003385
:1009800044205072696E7465722062657265697484
:100990002E00426574742061756667656865697AC2
:1009A00074003F0020573A004265747420617566F8
:1009B0006865697A656E0041756667656865697A1C
:1009C00074003F0020573A004175666865697A6592
:1009D0006E2E2E2E003344205072696E7465722084
:1009E0006265726569742E006F6B004D3131332082
:1009F00053004B494C4C45442E004543484F004959
:100A00004E464F004552524F525300445259525590
:100A10004E00434F4D4D554E49434154494F4E00B2
:100A20006F666600FA09FF09040A0B0A120A4445B8
:100A30004255473A004175666865697A656E2E2EA3
:100A40002E003344205072696E74657220626572A4
:100A50006569742E005374616E646172642044652C
:100A600076696174696F6E3A20004D65616E3A2057
:100A7000002020207369676D613A2000206D656158
:100A80006E3A20002020207A3A2000206F66200055
:100A900020207A3A2000793A2000783A200020205D
:100AA00020616E676C653A20005374617274696EE0
:100AB00067207261646975733A2000506F736974BE
:100AC000696F6E696E67207468652070726F626509
:100AD0002E2E2E0A003F4E756D626572206F6620C5
:100AE0006C65677320696E206D6F76656D656E74D9
:100AF000206E6F7420706C61757369626C6520285C
:100B0000302D3135292E0A00590058003F53616DB0
:100B1000706C652073697A65206E6F7420706C61EB
:100B2000757369626C652028342D3530292E0A00D2
:100B30004D3438205A2D50726F62652052657065B1
:100B400061746162696C69747920746573740A00F8
:100B50003F566572626F7365204C6576656C206EDA
:100B60006F7420706C61757369626C652028302D1C
:100B700034292E0A002569206D696E2C20256920F4
:100B800073656300456E642066696C65206C6973EB
:100B90007400426567696E2066696C65206C6973D4
:100BA00074004D6F746F72656E2045696E67657372
:100BB00063682E003344205072696E74657220623F
:100BC00065726569742E00447275636B2067656891
:100BD000742077656974657200576172746520616D
:100BE0007566204E75747A65722E00544553540014
:100BF000205A3A200020593A200042656420583A91
:100C00002000205A3A200020593A200042656420F2
:100C1000583A2000582F5920766F72205A20686F5A
:100C20006D656E2E00582F5920766F72205A2068FD
:100C30006F6D656E2E00202B00200A436F72726567
:100C40006374656420426564204865696768742040
:100C500076732E2042656420546F706F6C6F6779D5
:100C60003A200A00202B002028302C30290A0020AE
:100C700020204F2D2D2046524F4E54202D2D2B0A33
:100C8000002020207C202020202020202020202028
:100C90007C0A002020207C20202020282D292020B4
:100CA00020207C20540A002054207C20202020205A
:100CB0002020202020207C20480A002046207C2064
:100CC000282D29204E20282B29207C20470A00206F
:100CD00045207C20202020202020202020207C2037
:100CE000490A00204C207C20202020282B2920206D
:100CF00020207C20520A002020207C202020202040
:100D00002020202020207C0A002020202B2D2D2D8B
:100D1000204241434B202D2D2B0A00200A426564BE
:100D20002048656967687420546F706F67726170DE
:100D300068793A200A004D65616E206F6620736104
:100D40006D706C656420706F696E74733A2000205A
:100D5000643A200020623A200045716E20636F657E
:100D60006666696369656E74733A20613A2000288B
:100D7000422961636B00284629726F6E7400285205
:100D8000296967687400284C29656674003F4E75B0
:100D90006D626572206F662070726F6265642028D4
:100DA00050296F696E747320697320696D706C616E
:100DB000757369626C65202832206D696E696D7586
:100DC0006D292E0A0052756E6E696E6720696E205D
:100DD0004452592D52554E206D6F6465004732398B
:100DE000204175746F20426564204C6576656C699E
:100DF0006E670A003F2856296572626F7365204C42
:100E00006576656C20697320696D706C61757369B6
:100E1000626C652028302D34292E005761726E696E
:100E20006E673A20486F6D696E672042756D70205D
:100E300044697669736F72203C2031005761727487
:100E4000656E2E2E2E0020403A002042403A0020AF
:100E50002F0020423A00202F0020543A0020706FCB
:100E6000736974696F6E206F7574206F662072618C
:100E70006E67652E003F50726F6265200062757369
:100E8000793A2070617573656420666F7220696EAF
:100E900070757400627573793A207061757365645A
:100EA00020666F72207573657200627573793A20DF
:100EB00070726F63657373696E6700220A00556E06
:100EC0006B6E6F776E20636F6D6D616E643A20227A
:100ED0000020496E76616C6964206578747275646F
:100EE000657220002569205374756E64656E202537
:100EF00069204D696E7574656E00446F6E65207073
:100F000072696E74696E672066696C65004B494C46
:100F10004C45442E00414E474548414C54454E2EC9
:100F2000005072696E7465722073746F70706564BE
:100F30002064756520746F206572726F72732E2045
:100F400046697820746865206572726F7220616EE0
:100F50006420757365204D39393920746F207265AE
:100F600073746172742E202854656D70657261749B
:100F70007572652069732072657365742E205365E0
:100F8000742069742061667465722072657374617F
:100F90007274696E6729004E6F204C696E65204E31
:100FA000756D626572207769746820636865636B2C
:100FB00073756D2C204C617374204C696E653A20FA
:100FC000004E6F20436865636B73756D207769749D
:100FD00068206C696E65206E756D6265722C204CA0
:100FE000617374204C696E653A2000636865636BB9
:100FF00073756D206D69736D617463682C204C612D
:101000007374204C696E653A20004C696E65204E01
:10101000756D626572206973206E6F74204C617308
:1010200074204C696E65204E756D6265722B312C93
:10103000204C617374204C696E653A20004D31314B
:101040003000446F6E6520736176696E6720666953
:101050006C652E004D3239002020506C616E6E653B
:101060007242756666657242797465733A20002033
:1010700046726565204D656D6F72793A20004A753C
:101080006C203231203230313600436F6D70696C24
:1010900065643A20002853616D2C2050727573618D
:1010A0006D2076312E302900207C20417574686FC8
:1010B000723A2000323031362D30342D3234203126
:1010C000323A303000204C61737420557064617482
:1010D00065643A200020312E312E302D52433600E7
:1010E0004D61726C696E0020536F66747761726532
:1010F00020526573657400205761746368646F677C
:10110000205265736574002042726F776E206F7590
:1011100074205265736574002045787465726E6141
:101120006C20526573657400506F7765725570005E
:101130007374617274002200656E717565756569FE
:101140006E67202200FF01010000A0400000A040C7
:101150000000004000006343000047430000484394
:101160000000D8C100004743000048430000484346
:1011700000004743000048430000D8C100000000C1
:10118000000000006563686F3A004572726F723A42
:101190000020746F6F206C6F6E67206578747275B5
:1011A00073696F6E2070726576656E746564002079
:1011B000636F6C6420657874727573696F6E2070EC
:1011C000726576656E746564007C3C3E5E2B3D3FC7
:1011D0002F5B5D3B2C2A225C004D3834205820596F
:1011E000205A204500456E6473746F707320256328
:1011F00020256320256320256300205A3A002059CA
:101200003A0020583A00656E6473746F70732068FA
:1012100069743A200024F4D43050C38E20C2A24016
:1012200017828B7011127A910D816CD90AA861E135
:1012300008C7586607615143061E4B5D05C145A7A7
:10124000041A411104093D9803713931034036DB1A
:101250000265339102D4305402802E1D02632CEEBD
:1012600001752AC501B028A001102781018F2564CE
:10127000012B244B01E0223401AC211F018D200DF4
:1012800001801FFC00841EED00971DDF00B81CD2FA
:1012900000E61BC600201BBC00641AB200B219A8ED
:1012A000000A19A0006A189900D117910040178B05
:1012B00000B516840031167E00B31579003A157317
:1012C00000C7146F0058146A00EE13660088136399
:1012D0000025135E00C7125B006C125700151254F4
:1012E00000C111510070114F0021114B00D610495F
:1012F000008D1047004610440002104200C00F400D
:1013000000800F3E00420F3C00060F3B00CB0E3822
:1013100000930E37005C0E3500270E3400F30D32BB
:1013200000C10D3100900D3000600D2E00320D2DEA
:1013300000050D2C00D90C2B00AE0C2900850C29C2
:10134000005C0C2700350C27000E0C2600E80B244F
:1013500000C40B2400A00B23007D0B23005A0B219B
:1013600000390B2100180B2000F80A1F00D90A1EB3
:1013700000BB0A1E009D0A1D00800A1D00630A1C96
:1013800000470A1B002C0A1B00110A1A00F7091A51
:1013900000DD091900C4091900AB091900920917E9
:1013A000007B091800630917004C0916003609165E
:1013B00000200916000A091500F5081500E00814B8
:1013C00000CC081400B8081400A4081400900813F6
:1013D000007D0812006B081300580812004608121E
:1013E000003408110023081100120811000108112F
:1013F00000F0071000E0071000D0071000C0071031
:1014000000B0070F00A107100091070E0083070F1F
:101410000074070F0065070E0057070E0049070EFE
:10142000003B070D002E070E0020070D0013070DCF
:101430000006070D00F9060C00ED060D00E0060C95
:1014400000D4060C00C8060C00BC060C00B0060C4C
:1014500000A4060B0099060C008D060B0082060BFB
:101460000077060B006C060B0061060A0057060B9E
:10147000004C060A0042060A0038060A002E060A38
:101480000024060A001A060A001006090007060AC8
:1014900000FD050900F4050900EB050900E2050956
:1014A00000D9050900D0050900C7050900BE0509D6
:1014B00000B5050800AD050800A50509009C050854
:1014C00000940508008C050800840508007C0508C8
:1014D00000740508006C050700650508005D050738
:1014E00000560508004E050700470507004005089F
:1014F0000038050700310507002A05070023050706
:10150000001C050600160507000F05070008050664
:101510000002050700FB040600F5040700EE0406C0
:1015200000E8040600E2040700DB040600D5040618
:1015300000CF040600C9040600C3040600BD04066B
:1015400000B7040600B1040500AC040600A60406BA
:1015500000A00405009B0406009504050090040605
:10156000008A04050085040500800406007A04054D
:101570000075040500700405006B04050066040591
:1015800000610405005C04050057040500520405D1
:10159000004D04050048040500430405003E040412
:1015A000003A04050035040500300404002C04054D
:1015B0000027040400230405001E0404001A040488
:1015C0000016040500110404000D040400090405BC
:1015D000000404040000040400FC030400F80304F5
:1015E00000F4030400F0030400EC030400E8030427
:1015F00000E4030400E0030400DC030400D8030457
:1016000000D4030400D0030400CC030400C8030387
:1016100000C503030024F404D9201BC40C5C0E98FD
:1016200004C4095F0265077101F405F900FB04B306
:101630000048048700C103690058035500030345AF
:1016400000BE023A008402310053022A002902251A
:101650000004022000E4011C00C8011900AF0117BA
:101660000098011400840113007101100061011041
:101670000051010E0043010D0036010B002B010B40
:101680000020010B00150109000C010900030108ED
:1016900000FB000800F3000800EB000700E4000670
:1016A00000DE000600D8000600D2000600CC0005CF
:1016B00000C7000500C2000500BD000400B9000419
:1016C00000B5000400B1000400AD000400A900044E
:1016D00000A5000300A20003009F0004009B00037C
:1016E000009800030095000200930003009000039F
:1016F000008D0002008B00030088000200860002BB
:101700000084000300810002007F0002007D0002CF
:10171000007B0002007900020077000100760002E1
:10172000007400020072000100710002006F0002EC
:10173000006D0001006C0002006A000100690002F7
:1017400000670001006600010065000100640002FE
:10175000006200010061000100600001005F000202
:10176000005D0001005C0001005B0001005A000107
:101770000059000100580001005700010056000107
:101780000055000100540001005300000053000107
:10179000005200010051000100500001004F000103
:1017A000004E0000004E0001004D0001004C000101
:1017B000004B0000004B0001004A000100490001FD
:1017C00000480000004800010047000100460000FA
:1017D00000460001004500000045000100440001F2
:1017E00000430000004300010042000000420001ED
:1017F000004100000041000100400001003F0000E6
:10180000003F0001003E0000003E0001003D0000DE
:10181000003D0001003C0000003C0000003C0001D5
:10182000003B0000003B0001003A0000003A0001CC
:1018300000390000003900010038000000380000C5
:1018400000380001003700000037000100360000BA
:1018500000360000003600010035000000350000B1
:1018600000350001003400000034000000340001A5
:10187000003300000033000000330001003200009C
:101880000032000000320001003100000031000091
:101890000031000100300000003000000030000185
:1018A000002F0000002F0000002F0000002F00017B
:1018B000002E0000002E0000002E0001002D000070
:1018C000002D0000002D0000002D0001002C000064
:1018D000002C0000002C0000002C0001002B000058
:1018E000002B0000002B0000002B0001002A00004C
:1018F000002A0000002A0000002A00010029000040
:101900000029000000290000002900000029000132
:101910000028000000280000002800000028000027
:101920000028000100270000002700000027000019
:10193000002700000027000100260000002600000C
:1019400000260000002600000026000100250000FF
:1019500000250000002500000025000000250000F3
:1019600000250001002400000024000000240000E5
:1019700000240000002400010023000000230000D8
:1019800000230000002300000023000000230000CB
:1019900000230001002200000022000000220000BD
:1019A00000220000002200000022000100210000AF
:1019B00000210000002100000021000000210000A3
:1019C0000021000000210001002000000020000094
:1019D0000020000000200000002000000020000087
:1019E0000020000000200001001F0000001F000078
:1019F000001F0000001F0000001F0000001F00006B
:101A0000001F0001001E0000001E0000001E00005C
:101A1000001E0000004D494E54454D50207472691F
:101A20006767657265640054656D702E2042657449
:101A30007420756E746572736368722E004D415820
:101A400054454D502074726967676572656400542F
:101A5000656D702E204265747420756562657273C1
:101A60006368722E00546865726D616C2052756EE9
:101A7000617761790054656D702E206E2E2065723D
:101A80007265696368740048656174696E67206691
:101A900061696C6564004865697A656E2066656891
:101AA0006C67657363682E004D494E54454D502058
:101AB0007472696767657265640054656D702E2085
:101AC000756E74657273636872697474656E0062B2
:101AD0006564002C2073797374656D2073746F7066
:101AE00070656421204865617465725F49443A20DD
:101AF000004D415854454D502074726967676572B6
:101B000065640054656D702E20756562657273633F
:101B10006872697474656E004B64200023646566A6
:101B2000696E65202044454641554C545F004B6921
:101B3000200023646566696E652020444546415552
:101B40004C545F004B70200023646566696E65200D
:101B50002044454641554C545F005049442041754E
:101B6000746F74756E652066696E6973686564214B
:101B70002050757420746865206C617374204B70FC
:101B80002C204B6920616E64204B6420636F6E7360
:101B900074616E74732066726F6D2062656C6F770E
:101BA00020696E746F20436F6E6669677572617429
:101BB000696F6E2E6800504944204175746F7475CA
:101BC0006E65206661696C6564212074696D656F5E
:101BD000757400504944204175746F74756E6520AA
:101BE0006661696C6564212054656D70657261740D
:101BF00075726520746F6F206869676800204B6498
:101C00003A2000204B693A2000204B703A200020F7
:101C1000436C6173736963205049442000205475FC
:101C20003A2000204B753A2000206D61783A200060
:101C3000206D696E3A200020643A200020626961BC
:101C4000733A20001000AA03F0013A019002220129
:101C500030031001D00302017004F7001005ED00FD
:101C6000B005E5005006DD00F006D7009007D10072
:101C70003008CC00D008C7007009C300100ABE00AD
:101C8000B00ABB00500BB700F00BB300900CB000D3
:101C9000D00DAA00100FA5005010A00090119B00BD
:101CA000D0129600B014900090168B00701885002A
:101CB000501A8000301C7B00B01E750030216F0070
:101CC000B02369003026640010285F00902A5A0073
:101CD000702C5500F02E4F0070314800B032450096
:101CE000F033410070363900103737005038330078
:101CF00090392D00D03A2700B03C1C00503D170011
:101D0000F03D1100903E0900D03FE5FF53444B6188
:101D100072746520656E746665726E742E0053442D
:101D20004B617274652065726B616E6E742E004D2E
:101D30003432380020003F000920005A0059005872
:101D400000466C75737300466C757373004CC3BCAE
:101D5000667465726765736368772E004CC3BC66F2
:101D60007465726765736368772E004265747400EA
:101D7000426574740044C3BC73650044C3BC73659E
:101D8000004765736368772E004765736368772E35
:101D90000048617570746D656EC3BC0058005900D1
:101DA0005A00450045005A005900580042657765C1
:101DB00067656E0020302E31206D6D0020312E3091
:101DC000206D6D0031302E30206D6D00566F7262C7
:101DD0006572656974756E6700566F72772E205054
:101DE0004C41204265747400566F7277C3A4726DC3
:101DF000656E20504C4100566F7262657265697461
:101E0000756E6700566F72772E20414253204265EF
:101E1000747400566F7277C3A4726D656E20414270
:101E20005300566F72626572656974756E67004D16
:101E30003830004E65747A7465696C2045696E00AF
:101E40004D3831004E65747A7465696C2041757344
:101E50000041626BC3BC686C656E00566F7277C3DD
:101E6000A4726D656E2041425300566F7277C3A411
:101E7000726D656E20504C41004D3834004D6F74CA
:101E80006F72656E20417573004265776567656E98
:101E9000004732380A473239004732390042657408
:101EA00074204B6F7272656B747572005365747A2F
:101EB0006520486F6D65206869657200473238009B
:101EC000486F6D650048617570746D656EC3BC00C8
:101ED0004550524F4D2073706569636865726E009E
:101EE0004265747400426574740044C3BC73650039
:101EF00044C3BC7365004CC3BC667465726765738C
:101F00006368772E004CC3BC667465726765736343
:101F100068772E0054656D70657261747572004546
:101F200050524F4D2073706569636865726E004250
:101F300065747400426574740044C3BC73650044E6
:101F4000C3BC7365004CC3BC66746572676573631C
:101F500068772E004CC3BC667465726765736368EE
:101F6000772E0054656D7065726174757200566FDE
:101F70007277C3A4726D2E204142532045696E2EA4
:101F800000566F7277C3A4726D2E20504C412045CD
:101F9000696E2E00504944204300504944204300BC
:101FA00050494420440050494420440050494420B2
:101FB00049005049442049005049442050005049AC
:101FC00044205000082046616B746F720008204660
:101FD000616B746F720008204D61780008204D61BC
:101FE000780008204D696E0008204D696E0041752B
:101FF000746F54656D70004175730045696E004CD7
:10200000C3BC667465726765736368772E004CC3E2
:10201000BC667465726765736368772E0042657489
:102020007400426574740044C3BC73650044C3BC4F
:1020300073650045696E7374656C6C756E67656E6B
:1020400000452073746570732F6D6D0045207374A7
:102050006570732F6D6D005A2073746570732F6DEA
:102060006D005A2073746570732F6D6D0059207365
:10207000746570732F6D6D00592073746570732FC4
:102080006D6D00582073746570732F6D6D0058204E
:1020900073746570732F6D6D004120527565636BAD
:1020A0007A7567004120527565636B7A75670041E8
:1020B00020526574726163740041205265747261CC
:1020C00063740041206D617820450041206D617886
:1020D00020450041206D6178205A0041206D6178D3
:1020E000205A0041206D617820590041206D6178AF
:1020F00020590041206D617820580041206D6178A1
:102100002058005654726176206D696E00565472E4
:102110006176206D696E0056206D696E0056206DE7
:10212000696E0056206D617820450056206D6178FB
:1021300020450056206D6178205A0056206D617848
:10214000205A0056206D617820590056206D617824
:1021500020590056206D617820580056206D617816
:1021600020580056206520205275636B005620656C
:1021700020205275636B0056207A20205275636BC5
:102180000056207A20205275636B00562078792003
:102190005275636B0056207879205275636B00414D
:1021A0000041005A204F6666736574005A204F66DE
:1021B000667365740045696E7374656C6C756E67E3
:1021C000656E0046696C616D656E742044004669F9
:1021D0006C616D656E742044004520696E206D6DE4
:1021E000C2B3004175730045696E0045696E737432
:1021F000656C6C756E67656E005374616E646172B8
:10220000646B6F6E6669672E004550524F4D206CAF
:102210006164656E004550524F4D2073706569636F
:102220006865726E0046696C616D656E740042652A
:10223000776567756E670054656D7065726174755A
:10224000720048617570746D656EC3BC00022E2EFD
:102250000048617570746D656EC3BC004B65696E36
:10226000652053444B617274650053444B61727432
:10227000650053442D447275636B20416262727530
:1022800063680053442D447275636B20576569740D
:1022900065720053442D447275636B2050617573F1
:1022A000650045696E7374656C6C756E67656E006C
:1022B000566F72626572656974756E67004A7573F0
:1022C00074696572756E6700496E666F0000060975
:1022D00000FE070192032120FFFF08FF07FF000017
:1022E0000006000001070706020080808080800051
:1022F00080030202060105A0A005070706000050A2
:1023000050F850F850500507070600002078A070DC
:1023100028F020050707060000C0C81020409818C4
:102320000507070600006090A040A890680203031C
:10233000060104C04080030707060100204080809A
:1023400080402003070706010080402020204080B5
:1023500005050506000120A870A820050505060052
:10236000012020F820200203030602FFC040800560
:102370000101060003F8020202060200C0C00505C2
:1023800005060001081020408005070706000070C0
:1023900088888888887003070706010040C040408D
:1023A0004040E0050707060000708808708080F84C
:1023B000050707060000F81020100808F0050707B9
:1023C00006000010305090F81010050707060000B6
:1023D000F880F00808887005070706000070808004
:1023E000F0888870050707060000F80810202020F4
:1023F0002005070706000070888870888870050728
:102400000706000070888878080870020505060233
:1024100000C0C000C0C00206060602FFC0C000C067
:10242000408004070706000010204080402010056F
:102430000303060002F800F80407070601008040C5
:102440002010204080050707060000708808102033
:10245000002005070706000070880868A8A8700516
:102460000707060000708888F8888888050707062F
:102470000000F08888F08888F005070706000070E3
:10248000888080808870050707060000F0888888AB
:102490008888F0050707060000F88080F08080F843
:1024A000050707060000F88080F080808005070798
:1024B000060000708880B88888700507070600004D
:1024C000888888F88888880107070602008080804D
:1024D00080808080050707060000381010101090DB
:1024E000600507070600008890A0C0A09088050737
:1024F00007060000808080808080F80507070600BE
:102500000088D8A88888888805070706000088887A
:10251000C8A89888880507070600007088888888FA
:102520008870050707060000F08888F08080800525
:10253000070706000070888888A8906805070706C6
:102540000000F08888F0A090880507070600007852
:102550008080700808F0050707060000F82020209A
:102560002020200507070600008888888888887052
:102570000507070600008888888888502005070717
:102580000600008888888888A8500507070600008C
:1025900088885020508888050707060000888888AA
:1025A00050202020050707060000F8081020408072
:1025B000F8030707060100E08080808080E00505C1
:1025C000050600018040201008030707060100E00F
:1025D0002020202020E00503030600042050880569
:1025E0000101060000F8020202060205804005050E
:1025F0000506000070087888780507070600008047
:1026000080B0C88888F005050506000070808088C5
:10261000700507070600000808689888887805058F
:10262000050600007088F880700507070600003076
:1026300048E0404040400506060600FF7088887864
:1026400008700507070600008080B0C888888801E8
:10265000070706020080008080808080030808064B
:1026600001FF200020202020A040040707060000D2
:10267000808090A0C0A090030707060100C04040E2
:10268000404040E0050505060000D0A8A8A8A80520
:102690000505060000B0C888888805050506000005
:1026A00070888888700506060600FFF08888F0802C
:1026B000800506060600FF78888878080805050565
:1026C000060000B0C8808080050505060000708007
:1026D0007008F00407070600004040E0404040302A
:1026E0000505050600008888889868050505060028
:1026F0000088888850200505050600008888A8A85D
:10270000500505050600008850205088050606067D
:1027100000FF888888780870050505060000F81015
:102720002040F80307070601002040408040402079
:1027300001070706020080808080808080030707F1
:102740000601008040402040408005020206000251
:102750006890000000060000000000060000000075
:102760000006000000000006000000000006000057
:102770000000000600000000000600000000000647
:10278000000000000006000000000006000000003D
:102790000006000000000006000000000006000027
:1027A0000000000600000000000600000000000617
:1027B000000000000006000000000006000000000D
:1027C00000060000000000060000000000060000F7
:1027D00000000006000000000006000000000006E7
:1027E00000000000000600000000000600000000DD
:1027F00000060000000000060000000000060000C7
:1028000000000006000000000006000000000006B6
:1028100000000000000600000000000600000107A4
:102820000706020080008080808080050707060080
:10283000002070A8A0A870200507070600003040FF
:1028400040E04050A80505050600008870507088DB
:10285000050707060000885020F820F82001070728
:102860000602008080800080808005080806000045
:102870003048205050209060030101060107A00558
:102880000707060000F888B8B8B888F805070706F3
:102890000001700878887800F80505050600012811
:1028A00050A05028050303060001F80808020202A0
:1028B0000602064080050707060000F888A88898E9
:1028C000A8F8050101060006F804040406000360E8
:1028D0009090600507070600002020F8202000F8EF
:1028E00004050506000360902040F003050506007E
:1028F00003E020E020E00202020602064080050814
:10290000080600FF8888888898E880800507070601
:10291000000078989878181818020202060202C07F
:10292000C00202020602FF408003050506000340C4
:10293000C04040E0050707060001708888887000E5
:10294000F8050505060001A0502850A00507070658
:1029500000008890A858B8080805070706000088F6
:1029600090B848982038050808060000C040C048C4
:10297000D838080805070706000020002040808896
:10298000700508080600004020007088F888880557
:1029900008080600001020007088F88888050808DC
:1029A0000600002050007088F88888050808060096
:1029B000006890007088F8888805080806000050B4
:1029C00000708888F88888050808060000205020D4
:1029D0007088F888880507070600003860A0B8E00E
:1029E000A0B80508080600FF708880808870206005
:1029F000050808060000402000F880F080F805086F
:102A000008060000081000F880F080F805080806A5
:102A10000000205000F880F080F80507070600004D
:102A20005000F880F080F80308080601008040009C
:102A3000E0404040E0030808060100204000E0407C
:102A40004040E003080806010040A000E04040408C
:102A5000E0030707060100A000E0404040E0050752
:102A600007060000704848E8484870050808060056
:102A70000068900088C8A8988805080806000040EB
:102A8000207088888888700508080600001020706B
:102A90008888888870050808060000205000708823
:102AA000888870050808060000689000708888888B
:102AB0007005080806000050007088888888700536
:102AC000050506000188502050880508080600FF0B
:102AD0001070A8A8A8A870400508080600004020AB
:102AE0008888888888700508080600001020888873
:102AF00088888870050808060000205000888888AB
:102B0000887005080806000050008888888888704A
:102B10000508080600001020885020202020050904
:102B2000090600FFC040704848704040E0040808B3
:102B30000601FF609090A09090E0800508080600D4
:102B4000004020007008788878050808060000100A
:102B500020007008788878050808060000205000DA
:102B600070087888780508080600006890007008EA
:102B70007888780507070600005000700878887884
:102B8000050808060000205020700878887805069F
:102B900006060000D02878A0A8500506060600FF0B
:102BA00070808870206005080806000040200070D2
:102BB00088F880700508080600001020007088F86A
:102BC00080700508080600002050007088F88070AA
:102BD00005070706000050007088F8807003080899
:102BE00006010080400040C04040E00308080601A4
:102BF0000020400040C04040E003080806010040BB
:102C0000A00040C04040E0030707060100A00040CC
:102C1000C04040E0050707060000A040A0107888EB
:102C200070050808060000689000B0C8888888050C
:102C30000808060000402000708888887005080891
:102C400006000010200070888888700508080600BB
:102C50000020500070888888700508080600006809
:102C60009000708888887005070706000050007083
:102C7000888888700505050600012000F8002005F9
:102C800007070600FF1070A8A8A8704005080806EE
:102C90000000402000888888986805080806000021
:102CA00010200088888898680508080600002050D1
:102CB0000088888898680507070600005000888803
:102CC0008898680509090600FF102000888888F8A0
:102CD00008700407070601FFC04060506040E0052F
:102CE00008080600FF5000888888780870000609E8
:102CF00000FE000000000001090008FE00000508B9
:102D00000806000040F0C888889878100508080672
:102D10000000C0F88888888888F805050506000145
:102D20002030F830200508080600002070F8202028
:102D30002020E00509090600FF2070A8A8B88888AF
:102D400070200509090600FFE080C0B0A8283028DF
:102D5000280509090600FFF8A88888888888A8F847
:102D6000050A0A0600FE205050505088A8A8887016
:102D700003030306000340A0400000000000000021
:102D800000000000007FFFE00000000000000000E5
:102D9000000000007000E0000000000000000000E3
:102DA00000000061F860000000000000000000006A
:102DB000000041F8200000000000000000000000BA
:102DC0000040F020000000000000000000000000B3
:102DD00040602000000000000000000000000058DB
:102DE00001A07F80000000000000004104005C633F
:102DF000A0FFC0000000000000002082005EF7A0DD
:102E0000FFC0000000000000002082005EF7A0FF6D
:102E1000C0000000000000004104005C63A07F804F
:102E2000000000000000008208005801A07F800020
:102E3000000000000001041000406020FFC00000FE
:102E4000000000000104100040F020FFC00000005E
:102E50000000000082080041F820FFC000000000D0
:102E600000000041040061F8603F00000000000025
:102E700000000000007000E01E00000000000000E4
:102E800001FFFF807FFFE00C000000000000000158
:102E9000FFFF8000000000000000000000000000B4
:102EA00000007FFFE00000000000000000000000C4
:102EB000007000E0000000000000000000000000C2
:102EC000630C6000000000000000000000000047EC
:102ED0000E200000000000000000000000004F0F66
:102EE000200000000000000000000000005F0FA0B4
:102EF0000000000000000000000000005E07A07F4E
:102F00008000000000000000410400406020FFC07D
:102F10000000000000000020820040F020FFC00000
:102F200000000000000020820040F020FFC00000F0
:102F300000000000004104004060207F800000008D
:102F4000000000008208005E07A07F8000000000F3
:102F50000000010410005F0FA0FFC000000000008F
:102F600000010410004F0F20FFC00000000000000F
:102F700000820800470E20FFC00000000000000093
:102F8000410400630C603F000000000000000000EE
:102F900000007000E01E0000000000000001FFFFC4
:102FA000807FFFE00C0000000000000001FFFF80B8
:102FB0000000001FFFFFFFFFFFFF60000000000197
:102FC000FF400000000000FF8000000000007F8341
:102FD000CF00000C303F87FF80000C301F867980C7
:102FE000000C000F8C30C7838C30E78C30CFC7CCFF
:102FF00031F38C30DCECEC33B98C30D86C6C331999
:103000008C30D06C0C33198C30D86C0C33198C305C
:10301000DC6C0E3B198C30CF7C079F198C30C77C41
:10302000038F194000000000000260000000000053
:10303000061FFFFFFFFFFFF800000A0B02090C0D3F
:103040000E0807030401000000000000000000005B
:103050000000000000000000000000000000000070
:10306000000000001211100000000000000000002D
:10307000000000000000000000000000000001024D
:10308000102020080810204010204080020102017A
:103090000804020101020408102040808040201032
:1030A000080402018004020180402010080402018B
:1030B00008040201010204081020408001020408F3
:1030C00010204080050505050705080808080202CC
:1030D00002020A0A080804040404010101010101B2
:1030E00001010303030303030303040707070C0C95
:1030F0000C0C0C0C0C0C020202020606060606065C
:1031000006060B0B0B0B0B0B0B0B00002000230018
:10311000260029002C002F003200000100000301CE
:103120000601090100002200250028002B002E00C6
:103130003100340002010000050108010B0100000C
:103140002100240027002A002D0030003300010157
:103150000000040107010A014E414E494E495459ED
:10316000494E46CDCCCC3D0AD7233C17B7D1387752
:10317000CC2B329595E6241FB14F0A000020410068
:1031800000C84200401C4620BCBE4CCA1B0E5AAEB2
:10319000C59D7400A96D8CF476F9B56D11241FBE20
:1031A000CFEFD1E2DEBFCDBF00E00CBF15E0A0E065
:1031B000B2E0EEEBFFE102E00BBF02C007900D9220
:1031C000AC32B107D9F728E1ACE2B5E001C01D92FD
:1031D000A030B207E1F711E3CAE9D1E300E006C08D
:1031E00022970109FE010BBF0F944309C439D1078F
:1031F00080E00807A9F70F945D030D94CE0F0C949F
:103200000000452B31F0389A409A0F9429014098DC
:1032100008950D942901FC011482178213821282F1
:1032200086E794E091838083089526E734E0FC01EB
:10323000318320832781222319F004960C94C697AA
:103240000895CF92DF92EF92FF920F931F93CF9347
:10325000DF93EC018F96DFDFCE01805B9F4FDBDFDA
:103260007E012FE6E20EF11C87016E013BE5C31AD9
:103270003EEFD30AC801CFDF015E1F4F0C151D05BD
:10328000C9F7FE01EA55FE4F89E181831482359624
:10329000178ACE0187539E4FBEDFFE01E658FD4FD1
:1032A000108211821282138234961082118212824D
:1032B00013821A821B8218821982F8011082FE0181
:1032C000E851FE4F108286E391E0F7019C011192D4
:1032D00021503040E1F7FE01EA57FD4F81E0808345
:1032E0001EA61DA60F94FA00CE57DD4F68577C4EE0
:1032F0008F4F9F4F688379838A839B83DF91CF9120
:103300001F910F91FF90EF90DF90CF900895FC01F7
:1033100020E03EE2DB014C91403241F0283011F4D4
:1033200030833196DB014C91408331962F5F6F5F84
:103330007F4F2B3079F7108208952F923F924F9252
:103340005F926F927F928F929F92AF92BF92CF9235
:10335000DF92EF92FF920F931F93CF93DF93CDB73E
:10336000DEB7C657D1090FB6F894DEBF0FBECDBF8A
:103370008C016B015A0129012DB73EB7E3963FAF8F
:103380002EAFE397AD961FAEAD9734E0A30EB11C00
:103390004296E5969FAF8EAFE597180199E7291AF7
:1033A0009DEF390AF801E757FD4FAF96FFAFEEAF3B
:1033B000AF973801F5E06F0E711C7E012FE5E20E2C
:1033C000F11C80E490E08C0F9D1F0496E7969FAF60
:1033D0008EAFE797E5964EAD5FADE597BE016F5FA7
:1033E0007F4FC5010E942C9618160CF041C12C8508
:1033F000322F3871303109F0BCC0F10180819181E8
:103400000197029708F4B5C02DB73EB7E1963FAFDC
:103410002EAFE197BE016F5F7F4FC70178DF81E07C
:10342000F601908191119DC0E1E0F0E0D7010D908F
:103430000020E9F7EE19FF09EA0FFB1F31962DB7BF
:103440003EB72E1B3F0B0FB6F8943EBF0FBE2DBFED
:10345000EDB7FEB731964F01882319F069E273E0AA
:1034600001C0B601C4010F94CF0CB701C4010F9481
:10347000B00C69E273E0C4010F94B00CCE01805C23
:103480009F4FC9DE21E0A701B501E7968EAD9FAD44
:10349000E7970E94BD99811137C0F1018081918128
:1034A000892B91F5E4E8F1E18491882341F0909132
:1034B000C00095FFFCCF8093C6003196F5CFEBE2BC
:1034C000F3E08191882339F09091C00095FFFCCF03
:1034D0008093C600F6CF8091C00085FFFCCF8AE0C4
:1034E0008093C600F7018191882339F09091C00044
:1034F00095FFFCCF8093C600F6CF8091C00085FF7A
:10350000FCCF8AE08093C6008BE1FE01EC5BFF4FAD
:10351000DE01959601900D928A95E1F724968EAD85
:103520009FAD24979CA38BA386E794E09AA389A3DD
:1035300020E030E0AE014F5D5F4FB401C801FDDE19
:10354000CE01819672DECE01805C9F4F6EDEE196E9
:103550002EAD3FADE1970FB6F8943EBF0FBE2DBF25
:1035600039CF80E001900020E9F73197EC19FD098F
:103570005DCF8981882309F47BC0853E09F42ACF79
:103580008E3209F427CFF80182898E3209F422CFD6
:1035900023FD20CF81E0303109F080E0F801848301
:1035A000811108C08985873409F014CF8A858E3748
:1035B00009F410CFF101808191818130910569F08A
:1035C0008230910581F1892B09F004CFBE016F5F34
:1035D0007F4FC3019CDEF60110C0AF96EEADFFAD8C
:1035E000AF9780819181019691838083F3CE9091F2
:1035F000C00095FFFCCF8093C60081918111F7CF69
:10360000F3018191882339F09091C00095FFFCCFA0
:103610008093C600F6CF8091C00085FFFCCF8AE082
:103620008093C600D7CEBE016F5F7F4FC3016FDEB0
:103630004114510439F0B301C2010F949D0C892B40
:1036400079F416C0AD96FFADAD972F2F30E0AF9651
:10365000EEADFFADAF97808191812817390741F01A
:10366000AD96FFADAD97FF5FAD96FFAFAD97B2CE14
:10367000E3962EAD3FADE3970FB6F8943EBF0FBE75
:103680002DBFCA58DF4F0FB6F894DEBF0FBECDBFB7
:10369000DF91CF911F910F91FF90EF90DF90CF902E
:1036A000BF90AF909F908F907F906F905F904F9062
:1036B0003F902F900895EF92FF920F931F93CF9317
:1036C000DF93CDB7DEB76F970FB6F894DEBF0FBEAE
:1036D000CDBF8C01FC01E957FD4F118210827C01A6
:1036E00083E3E80EF11C40E050E0BA01C7010E94FC
:1036F000E3968BE1F701DE01159601900D928A9514
:10370000E1F7F80181A992A99C838B8386E794E075
:103710009A83898320E030E0AE014F5F5F4F65E51B
:1037200073E0C8010ADECE0101967FDD6F960FB609
:10373000F894DEBF0FBECDBFDF91CF911F910F91E7
:10374000FF90EF900895EF92FF920F931F93CF9306
:10375000DF93EC011B828EA9882321F0CE01C39652
:103760000E94C6977E018AE5E81A8EEFF80A45E3C3
:1037700060E0C7010E94439281111FC0E4E8F1E1BB
:103780008491882341F09091C00095FFFCCF8093F5
:10379000C6003196F5CFE7E0F4E08491882341F04C
:1037A0009091C00095FFFCCF8093C6003196F5CF75
:1037B0008091C00085FFFCCF76C08E0105551E4F5D
:1037C00041E0B701C8010E94C79F811126C040E0B7
:1037D000B701C8010E94C79F81111FC0EAE8F1E14B
:1037E0008491882341F09091C00095FFFCCF809395
:1037F000C6003196F5CFE4EFF3E08491882341F0E1
:103800009091C00095FFFCCF8093C6003196F5CF14
:103810008091C00085FFFCCF46C0B801CE01C396A1
:103820000E94D09481111FC0EAE8F1E184918823BD
:1038300041F09091C00095FFFCCF8093C600319677
:10384000F5CFE4EEF3E08491882341F09091C0003D
:1038500095FFFCCF8093C6003196F5CF8091C000D4
:1038600085FFFCCF20C081E08B83E4E8F1E1849107
:10387000882341F09091C00095FFFCCF8093C60053
:103880003196F5CFE9EDF3E08491882341F09091F2
:10389000C00095FFFCCF8093C6003196F5CF809194
:1038A000C00085FFFCCF8AE08093C600CE01805B1C
:1038B0009F4F2BE1FE01F396DC01149601900D92CF
:1038C0002A95E1F729A93AA9FC013383228332978B
:1038D000AF96D183C083DF91CF911F910F91FF905D
:1038E000EF900895FC01128213820895CF92DF9227
:1038F000EF92FF920F931F93CF93DF93CDB7DEB775
:10390000CDB6DEB6FB0101900020E9F7E61BF70B10
:1039100034968DB79EB78E1B9F0B0FB6F8949EBF43
:103920000FBE8DBF0DB71EB70F5F1F4F7F936F93F5
:1039300082ED93E09F938F931F930F930F94F30C5B
:10394000780194E0E90EF11C0F900F900F900F900A
:103950000F900F90F7018081882349F0992787FD08
:1039600090950F943E0CF70181937F01F3CF60E0B7
:10397000C8010E94E9328EEC93E00E948E330FB6AC
:10398000F894DEBE0FBECDBEDF91CF911F910F9197
:10399000FF90EF90DF90CF900895FC0123812223C8
:1039A00011F021E022830895FC012281211112826D
:1039B0000895AF92BF92CF92DF92EF92FF920F9352
:1039C0001F93CF93DF931F92CDB7DEB78C018FE2A9
:1039D000FB0181935F01D12C21E07801FBE5EF1A17
:1039E000FEEFFF0A8FE1C82EF7018081D816C8F4D8
:1039F000B501C801CD9C800D911D11248D589F4F9C
:103A000029830E947794C50129815C010196F50103
:103A10003081332321F02D3810F42F5FF6CFD3946B
:103A2000E3CF27FD11C0B501C80183539E4F0F900E
:103A3000DF91CF911F910F91FF90EF90DF90CF908A
:103A4000BF90AF900C947794F50110820F90DF91A6
:103A5000CF911F910F91FF90EF90DF90CF90BF908B
:103A6000AF9008953F924F925F926F927F928F92A4
:103A70009F92AF92BF92CF92DF92EF92FF920F93FD
:103A80001F93CF93DF93CDB7DEB7AC970FB6F89403
:103A9000DEBF0FBECDBF7C015B01FC0183818823AB
:103AA00009F4EDC0C70183539E4F0E94C697F701EA
:103AB0001282CE0101966C01AEDB27019EE4490E15
:103AC000511CC7018F96F20191838083F50180819B
:103AD0008F3209F077C06FE270E0C5010F94BB0C24
:103AE0008C010F5F1F4F9AE0392E0115110509F463
:103AF0006FC06FE270E0C8010F94BB0C4C010097DF
:103B000009F467C00817190708F063C03C01601A80
:103B1000710AA301B801CE0180960F94E40CE0E293
:103B2000F0E0EC0FFD1FE60DF71D1082FE01B096D0
:103B30008191882339F09091C00095FFFCCF80934C
:103B4000C600F6CF8091C00085FFFCCF3092C60042
:103B5000F201608171816115710519F06C5F7F4F11
:103B600002C060E070E021E0AE01405E5F4FCE0138
:103B700005960E94BD9981111EC0EBEAF2E0849186
:103B8000882341F09091C00095FFFCCF8093C60040
:103B90003196F5CFFE01B0968191882339F090914E
:103BA000C00095FFFCCF8093C600F6CF8091C00087
:103BB00085FFFCCF5FC0F201D182C08284010F5F1C
:103BC0001F4F93CFC701805B9F4FF201918380838A
:103BD0008501F20180819181009711F0049602C065
:103BE00080E090E0B8010E94939A811103C0E5E85B
:103BF000F2E02EC0EDE9F2E08491882341F090914B
:103C0000C00095FFFCCF8093C6003196F5CFF80138
:103C10008191882339F09091C00095FFFCCF80936B
:103C2000C600F6CF8091C00085FFFCCF8AE080936C
:103C3000C600F701E258FD4F1082118212821382F2
:103C40001CC09091C00095FFFCCF8093C6003196B8
:103C500084918111F6CFF8018191882339F09091F8
:103C6000C00095FFFCCF8093C600F6CF8091C000C6
:103C700085FFFCCF8EE28093C600C601D6DAAC96F3
:103C80000FB6F894DEBF0FBECDBFDF91CF911F916D
:103C90000F91FF90EF90DF90CF90BF90AF909F90EB
:103CA0008F907F906F905F904F903F900895CF934B
:103CB000DF93EC018B81811103C0E3E6F2E039C0B0
:103CC000E3E7F2E08491882341F09091C00095FFF2
:103CD000FCCF8093C6003196F5CFFE01E258FD4F30
:103CE00040815181628173812AE030E08CE295E06D
:103CF0000E94D5308091C00085FFFCCF8FE2809379
:103D0000C600C658DD4F488159816A817B812AE00F
:103D100030E08CE295E00E94D5308091C00085FFB4
:103D2000FCCF0EC09091C00095FFFCCF8093C600E1
:103D3000319684918111F6CF8091C00085FFFCCF30
:103D40008AE08093C600DF91CF910895AF92BF9231
:103D5000CF92DF92EF92FF920F931F93CF93DF9357
:103D60005C01EB01FB0101900020E9F78F0101509C
:103D70001109061B170B6C01F3E3CF1AFEEFDF0AE4
:103D8000F60110826EE470E0CE010F94BB0C7C0152
:103D9000009729F4F8013197EC0FFD1F0DC060E288
:103DA00070E00F94BB0CEC0121966AE270E0C70151
:103DB0000F94BB0CFC0131978DE081838AE08283F4
:103DC0001382BE01C50187539E4F0E94709CF6016D
:103DD0008081882309F1EAE8F1E18491882341F0A8
:103DE0009091C00095FFFCCF8093C6003196F5CF2F
:103DF000EDE4F2E08491882341F09091C00095FFBA
:103E0000FCCF8093C6003196F5CF8091C00085FF2E
:103E1000FCCF8AE08093C600DF91CF911F910F9174
:103E2000FF90EF90DF90CF90BF90AF9008956F928A
:103E30007F928F929F92AF92BF92CF92DF92EF923A
:103E4000FF920F931F93CF93DF93CDB7DEB7AA975F
:103E50000FB6F894DEBF0FBECDBF8C018A579D4FC1
:103E60007C01611114C0FC018081882309F498C091
:103E70000F94FA00F801EE57FD4F80809180A280E8
:103E8000B380681979098A099B0997FF89C0F701EE
:103E90001082F8018381811107C0C80154DCF80148
:103EA0008381882309F47CC0F80186A58F9385A5BA
:103EB0008F9384E492E09F938F937E01F1E2EF0E63
:103EC000F11CFF92EF920F94F30C0F900F900F9054
:103ED0000F900F900F90B12CF70101900020E9F79F
:103EE0003197EE19FF09BE1684F46701CB0CD11C83
:103EF000B7FCDA94F6018081992787FD90950F949D
:103F00003E0CF6018083B394E7CF4801F3E38F0EB4
:103F1000911C40E050E0BA01C4010E94E396612C7C
:103F2000CE0101965C0140E050E0B501C4010E9461
:103F30002C9618164CF5712CF50101900020E9F72C
:103F40003197EA19FB097E1674F46501C70CD11C80
:103F500077FCDA94F601808190E00F943E0CF60134
:103F600080837394E9CF8A858E37E9F245E050E08B
:103F7000B701C5010F94D60C892BA9F6B701C8016A
:103F8000B5DC66246394CFCF611004C08FEF9FEF40
:103F9000F80104C0F80185A596A5019696A785A706
:103FA000AA960FB6F894DEBF0FBECDBFDF91CF91BA
:103FB0001F910F91FF90EF90DF90CF90BF90AF9047
:103FC0009F908F907F906F9008950F931F93CF9342
:103FD000DF93EC018C0103531E4FC8010E947C97B4
:103FE000C8010E94C69719821882DF91CF911F9154
:103FF0000F910895CF92DF92EF92FF920F931F934C
:10400000CF93DF93CDB7DEB76F970FB6F894DEBFCF
:104010000FBECDBF8C016A017C018EE4E80EF11C5D
:10402000C801805B9F4FF70191838083E75CFD4F60
:1040300022E030E03183208332967183608340E058
:1040400050E0BA0104960E94E396F70180819181C5
:104050002BE1FC013496DE01159601900D922A9514
:10406000E1F7FC01828193819C838B8386E794E056
:104070009A8389839601AE014F5F5F4F65E573E0D8
:10408000C8015BD9CE010196D0D86F960FB6F894CF
:10409000DEBF0FBECDBFDF91CF911F910F91FF907B
:1040A000EF90DF90CF9008952F923F924F925F92C2
:1040B0006F927F928F929F92AF92BF92CF92DF9238
:1040C000EF92FF920F931F93CF93DF93CDB7DEB79D
:1040D000AC970FB6F894DEBF0FBECDBF8C016B015D
:1040E000342EFC018381882309F4CDC2E053FE4FB6
:1040F0008081882309F4FAC0211103C0E4E8F1E1CA
:10410000CDC07801F8E1EF1AFEEFFF0AF7018081D8
:10411000811103C0E4E8F1E135C0EAE8F1E18491FE
:10412000882341F09091C00095FFFCCF8093C6009A
:104130003196F5CFEBE8F3E08491882341F090913C
:10414000C00095FFFCCF8093C6003196F5CF4AE0C2
:1041500050E061E070E08CE295E00E94A93080912F
:10416000C00085FFFCCF8AE08093C60083E893E01F
:104170000E94215888C29091C00095FFFCCF809387
:10418000C600319684918111F6CFEAE6F3E084917E
:10419000882341F09091C00095FFFCCF8093C6002A
:1041A0003196F5CFF6018191882339F09091C000C6
:1041B00095FFFCCF8093C600F6CFEFE5F3E0849146
:1041C000882341F09091C00095FFFCCF8093C600FA
:1041D0003196F5CFF70180813DE8B32EB801B89E46
:1041E000600D711D112463517E4FC801E2DBF701A0
:1041F0008081F801B89EE00DF11D1124E351FE4FBE
:104200008191882339F09091C00095FFFCCF809375
:10421000C600F6CFE9E5F3E08491882341F0909160
:10422000C00095FFFCCF8093C6003196F5CF5801B2
:10423000F2E8AF1AFDEFBF0AF501408151816281BA
:1042400073812AE030E08CE295E00E94D5308091C5
:10425000C00085FFFCCF8AE08093C600F701208173
:10426000F80184E0289FE00DF11D1124AF014751B2
:104270005E4FF50180819181A281B381FA01808333
:104280009183A283B3832F5FF701208329C090918C
:10429000C00095FFFCCF8093C600319684918111B8
:1042A000F6CFE8E4F3E08491882341F09091C000D8
:1042B00095FFFCCF8093C6003196F5CFF601819132
:1042C000882339F09091C00095FFFCCF8093C60001
:1042D000F6CF8091C00085FFFCCF8AE08093C600B6
:1042E000C80183539E4F0E94C69730C0F801E85121
:1042F000FE4F1082E4E8F1E18491882341F090912F
:10430000C00095FFFCCF8093C6003196F5CFE7E360
:10431000F3E08491882341F09091C00095FFFCCF99
:104320008093C6003196F5CFF6018191882339F04C
:104330009091C00095FFFCCF8093C600F6CF80918E
:10434000C00085FFFCCF8AE08093C600F80112828E
:10435000CE0101965C010E940B1928019EE4490ED2
:10436000511CC8018F96F20191838083F6018081F0
:104370008F3209F077C07601FFEFEF1AFF0A2AE0CB
:10438000222EE114F10409F473C06FE270E0C7015A
:104390000F94BB0C4C01009709F46BC0E816F906AA
:1043A00008F067C03C016E187F08A301B701CE0179
:1043B00080960F94E40CE0E2F0E0EC0FFD1FE60DB8
:1043C000F71D1082FE01B0968191882339F09091FB
:1043D000C00095FFFCCF8093C600F6CF8091C0004F
:1043E00085FFFCCF2092C600F201608171816115CA
:1043F000710519F06C5F7F4F02C060E070E021E052
:10440000AE01405E5F4FCE0105960E94BD998111BD
:1044100021C0E3E2F3E08491882341F09091C00051
:1044200095FFFCCF8093C6003196F5CFFE01B09684
:104430008191882339F09091C00095FFFCCF809343
:10444000C600F6CF8091C00085FFFCCF8EE280933E
:10445000C60016C1F201B182A0827401FFEFEF1A0B
:10446000FF0A8FCFC801805B9F4FF2019183808349
:104470007601C80183539E4F4C01F2016081718126
:10448000332009F4A3C06115710519F06C5F7F4FEB
:1044900002C060E070E021E0A701C4010E94BD9964
:1044A000811103C0EBEEF2E075C0980126583D4F34
:1044B000F40181899289A389B489F9018083918368
:1044C000A283B383E5E1F3E08491882341F09091E6
:1044D000C00095FFFCCF8093C6003196F5CFF70161
:1044E0008191882339F09091C00095FFFCCF809393
:1044F000C600F6CFEDE0F3E08491882341F090917F
:10450000C00095FFFCCF8093C6003196F5CFF9012E
:1045100040815181628173812AE030E08CE295E034
:104520000E94D5308091C00085FFFCCF8AE0809347
:10453000C600F801E258FD4F1082118212821382E8
:10454000EFEFF2E08491882341F09091C00095FF55
:10455000FCCF8093C6003196F5CF8091C00085FFD7
:10456000FCCF8AE08093C600A70160E070E0C8013C
:1045700041DDF8018289882319F0C801429601C003
:10458000C70160E07BC09091C00095FFFCCF809395
:10459000C600319684918111F6CFF701819188236D
:1045A00039F09091C00095FFFCCF8093C600F6CF04
:1045B000E8EEF2E08491882309F462C09091C00093
:1045C00095FFFCCF8093C6003196F4CF611571053D
:1045D00019F06C5F7F4F02C060E070E026E5A70134
:1045E000C4010E94BD99811125C0E4EDF2E08491DF
:1045F000882341F09091C00095FFFCCF8093C600C6
:104600003196F5CFF7018191882339F09091C00060
:1046100095FFFCCF8093C600F6CFE1EDF2E08491E8
:10462000882371F19091C00095FFFCCF8093C60064
:104630003196F5CF81E0F8018083EFEBF2E08491D1
:10464000882341F09091C00095FFFCCF8093C60075
:104650003196F5CFF6018191882339F09091C00011
:1046600095FFFCCF8093C600F6CF8091C00085FFF8
:10467000FCCF8AE08093C60060E0C7010E9483D12E
:10468000C5010E941519AC960FB6F894DEBF0FBE97
:10469000CDBFDF91CF911F910F91FF90EF90DF90F1
:1046A000CF90BF90AF909F908F907F906F905F90D2
:1046B0004F903F902F90089521E0FC01218320E04E
:1046C00040E0F2CCCF92DF92EF92FF920F931F93D4
:1046D000CF93DF93CDB7DEB76F970FB6F894DEBFF9
:1046E0000FBECDBF8C016C012EE4C20ED11C805BCD
:1046F0009F4FF60191838083E75CFD4F21E030E01E
:10470000318320837801F7E7EF1AFDEFFF0AF70105
:104710001182108240E050E0BA0104960E94E396B4
:10472000F601808191812BE1FC013496DE01159622
:1047300001900D922A95E1F7FC01828193819C837F
:104740008B8386E794E09A83898320E030E0AE0192
:104750004F5F5F4F65E573E0C8010E949D19CE0170
:1047600001960E941519F701808191816F960FB60D
:10477000F894DEBF0FBECDBFDF91CF911F910F9197
:10478000FF90EF90DF90CF900895AF92BF92CF92BD
:10479000DF92EF92FF920F931F93CF93DF93CDB7EA
:1047A000DEB76F970FB6F894DEBF0FBECDBF8C019A
:1047B0005B01CE0101960E940B19F801E95AFF4FE7
:1047C00080817801811104C02FE2E20EF11C03C048
:1047D00030E5E30EF11C670144E0C40ED11C21E07A
:1047E000A501B601CE0105960E94BD9981112DC08B
:1047F000E4E8F1E18491882341F09091C00095FFB5
:10480000FCCF8093C6003196F5CFEEE2F2E08491C2
:10481000882341F09091C00095FFFCCF8093C600A3
:104820003196F5CFF5018191882339F09091C00040
:1048300095FFFCCF8093C600F6CF8091C00085FF26
:10484000FCCF8AE08093C60030C0F801EB55FE4FE4
:1048500080818A30D0F491E0980F9083F8012FE1A5
:10486000829FE00DF11D1124CF0181599F4F2BE153
:10487000F601DC01149601900D922A95E1F7F701FB
:1048800022813381FC0133832283005B1F4F8BE144
:10489000FE013596D801149601900D928A95E1F7A4
:1048A0008B819C81F80193838283CE0101960E94C3
:1048B00015196F960FB6F894DEBF0FBECDBFDF910E
:1048C000CF911F910F91FF90EF90DF90CF90BF900D
:1048D000AF900895CF93DF93FC01EB55FE4F2081FD
:1048E0002223D1F021502083EC013FE1239FC00D12
:1048F000D11D1124C159DF4F805B9F4F2BE1FE0179
:104900003496DC01149601900D922A95E1F72A81E4
:104910003B81FC0133832283DF91CF910895EF9295
:10492000FF920F931F93CF93DF93EC010E94E3ACB0
:104930008E0108511E4FF80180819E0123533E4F86
:1049400079018823A1F1C9010E94C697F8018081ED
:1049500081508083BE01FDE88F9F600D711D112481
:1049600063517E4F21E041E0CE019EDBF801808162
:10497000FE0124E0829FE00DF11D1124E751FE4F5E
:104980004081518162817381FE01E258FD4F408375
:10499000518362837383C7010E94E396CE01DF9146
:1049A000CF911F910F91FF90EF900C94CD1CC901F6
:1049B0000E94C6971A8282E292E00E948E33809112
:1049C000AD0F882349F11092AD0F0091420610E01F
:1049D000E801CC0FDD1FC95ADB4E68817981882739
:1049E00077FD8095982F0F949F0520914602309176
:1049F000470240914802509149020F94000718164F
:104A00005CF419821882C801DF91CF911F910F9138
:104A1000FF90EF900C9446B4DF91CF911F910F91CE
:104A2000FF90EF900895AF92BF92DF92EF92FF92C6
:104A30000F931F93CF93DF931F92CDB7DEB78C01F7
:104A40005B01460F8AE0D82E4A1509F43BC0750178
:104A5000F50161915F01F8018081918149830F9493
:104A6000170FF801808191810F940F0FF70190814A
:104A70004981891701F1E4E8F1E18491882341F04B
:104A80009091C00095FFFCCF8093C6003196F5CF82
:104A9000EFEDF6E08491882341F09091C00095FFFE
:104AA000FCCF8093C6003196F5CF8091C00085FF82
:104AB000FCCFD092C600F80180819181019691834C
:104AC0008083C2CF0F90DF91CF911F910F91FF9004
:104AD000EF90DF90BF90AF900895EF92FF920F9309
:104AE0001F93CF93DF931F92CDB7DEB78C017B016D
:104AF000460FF8018081918149830F940F0FF701D0
:104B000081937F01F8018081918101969183808357
:104B100049814E11EECF0F90DF91CF911F910F91F0
:104B2000FF90EF900895CF92DF92EF92FF920F9354
:104B30001F93CF93DF93CDB7DEB765970FB6F89489
:104B4000DEBF0FBECDBF19861A861B861C8680E38A
:104B500090E3A0E3B0E08D839E83AF83B88784E6C3
:104B600090E09A8B898B44E0BE016B5F7F4FCE0152
:104B7000419659DF40E16EEE7FE0CE01419653DF72
:104B800040E16EEF7FE0CE0141964DDF40E16EEDFA
:104B90007FE0CE01419647DF44E066ED7FE0CE0145
:104BA000419641DF44E062ED7FE0CE0141963BDF7C
:104BB00044E06EEC7FE0CE01419635DF44E06AEDE3
:104BC0007FE0CE0141962FDF44E06EEB7FE0CE0127
:104BD000419629DF44E06EE070E1CE01419623DF8B
:104BE00044E06AEC7FE0CE0141961DDF44E066ECD4
:104BF0007FE0CE01419617DF44E062EC7FE0CE011A
:104C0000419611DF4CE065E476E0CE0141960BDF82
:104C100083E08D8B8C8B1B8A19861A861B861C86DB
:104C200041E0BE016D5E7F4FCE014196FCDE44E067
:104C3000BE01675F7F4FCE014196F5DE41E0BE01C8
:104C40006B5E7F4FCE014196EEDE41E0BE016C5EB1
:104C50007F4FCE014196E7DE10E09D898C89212FA0
:104C600030E0989FC001112444E02817390744F42C
:104C7000BE01675F7F4FCE014196D5DE1F5FEDCF4E
:104C800061E276E0CE014196CEDE19861A861B8659
:104C90001C861AE0115041F044E0BE01675F7F4F6F
:104CA000CE014196C0DEF6CF42E06AE277E1CE0166
:104CB0004196B9DE42E068E277E1CE014196B3DE8B
:104CC00042E066E277E1CE014196ADDE42E064E289
:104CD00077E1CE014196A7DE42E062E277E1CE01C4
:104CE0004196A1DE42E060E277E1CE0141969BDE93
:104CF000C12C90E8D92E9BE3E92E95E4F92E1111F1
:104D000019C044E06EE872E0CE0141968CDE44E0CA
:104D10006AE872E0CE01419686DE44E066E872E021
:104D2000CE01419680DE44E062E872E0CE01419619
:104D30007ADE1AC0C986DA86EB86FC8644E0BE01BC
:104D4000675F7F4FCE0141966EDE19861A861B86FD
:104D50001C8604E0015041F044E0BE01675F7F4FD4
:104D6000CE01419660DEF6CF1F5F143041F642E07F
:104D70006FE072E0CE01419656DE44E06AE972E0EF
:104D8000CE01419650DE44E066E972E0CE014196E4
:104D90004ADE44E062E972E0CE01419644DE80E200
:104DA00090E0988B8F8742E0BE01615F7F4FCE011C
:104DB000419639DE80E090E0A0E8BFE389879A87DA
:104DC000AB87BC8744E0BE01675F7F4FCE01419651
:104DD0002ADE41E06DE576E0CE01419624DE10E06A
:104DE00011110CC08091350290913602A0913702CA
:104DF000B091380289879A87AB87BC8744E0BE01AF
:104E0000675F7F4FCE0141960EDE1F5F143041F782
:104E100086E592E3A3E3B0E089839A83AB83BC8306
:104E200084E690E09E878D8744E0BE016F5F7F4FF0
:104E3000CE010D96F8DDE4E8F1E18491882341F09C
:104E40009091C00095FFFCCF8093C6003196F5CFBE
:104E500069897A898DEC96E00E947632E5ECF6E07D
:104E60008491882341F09091C00095FFFCCF8093FE
:104E7000C6003196F5CF8091C00085FFFCCF8AE057
:104E80008093C60065960FB6F894DEBF0FBECDBF07
:104E9000DF91CF911F910F91FF90EF90DF90CF9016
:104EA0000895AF92BF92DF92EF92FF920F931F93FC
:104EB000CF93DF93CDB7DEB7E0970FB6F894DEBFA0
:104EC0000FBECDBF80E1E3EFF2E0DE0191960190ED
:104ED0000D928A95E1F780E1E3E0F3E0DE0151967F
:104EE00001900D928A95E1F780E1E3E1F3E0DE01C4
:104EF000119601900D928A95E1F77E0181E2E80E0C
:104F0000F11C0EEE1FE0BE016F5E7F4F4EEF5FE0C3
:104F10009E012F5F3F4FEEEDAE2EEFE0BE2ED12C67
:104F2000F70181919191A191B1917F01F801819354
:104F30009193A193B1938F01FB0181919191A191E3
:104F4000B191BF01FA0181939193A193B193AF0104
:104F5000F90181919191A191B1919F01F501819305
:104F60009193A193B1935F01D394F4E0DF12D8CF72
:104F70000E948D7F80E090E8ABEBB4E48093D60F85
:104F80009093D70FA093D80FB093D90F40E050E87B
:104F90006BE375E44093D20F5093D30F6093D40F1B
:104FA0007093D50F8093CE0F9093CF0FA093D00F17
:104FB000B093D10F1092DA0F1092DB0F1092DC0F2A
:104FC0001092DD0F80E29EE4A0E0B0E080930E102E
:104FD00090930F10A0931010B09311101092BE0F69
:104FE0001092BF0F1092C00F1092C10F80E090E09E
:104FF000A0EAB1E48093CA0F9093CB0FA093CC0F9B
:10500000B093CD0F8DEC9CECACECBEE38093C60F5F
:105010009093C70FA093C80FB093C90F80E090E0A2
:10502000A0EAB0E48093C20F9093C30FA093C40F83
:10503000B093C50F10924D0610924E0610924F0677
:10504000109250061092490610924A0610924B0692
:1050500010924C0610924506109246061092470692
:1050600010924806109221061092220610922306F2
:105070001092240684EB90E090932B1780932A17CC
:105080008CE390E0909329178093281710922717AC
:10509000109226178CED90E090932517809324179B
:1050A00084E690E0909323178093221710922117A3
:1050B000109220178DEC9CECA0E8B1E480938E0256
:1050C00090938F02A0939002B09391026AE077EDE3
:1050D00083E69FE30E9449BE60938A0270938B022D
:1050E00080938C0290938D026DEC7CEC80E992E4CD
:1050F0000E9455BE60938602709387028093880257
:105100009093890280E090E0A8ECB2E48093820260
:1051100090938302A0938402B093850284E190E08F
:105120009093100280930F020E946DAF8AE097E384
:10513000A9E8B3E480939A0290939B02A0939C0207
:10514000B0939D0261EE7AE780E691E40E9449BE49
:1051500060939602709397028093980290939902BD
:1051600067ED73EC87EA94E40E9455BE6093920267
:1051700070939302809394029093950210925D062F
:1051800080E090E0A0E4B0E4809335029093360292
:10519000A0933702B09338020E94D167E4E8F1E1AE
:1051A0008491882341F09091C00095FFFCCF8093BB
:1051B000C6003196F5CFEEE7F6E08491882341F002
:1051C0009091C00095FFFCCF8093C6003196F5CF3B
:1051D0008091C00085FFFCCF8AE08093C600E096F6
:1051E0000FB6F894DEBF0FBECDBFDF91CF911F91F8
:1051F0000F91FF90EF90DF90BF90AF900895CF9305
:10520000C82F882389F14091EE0F5091EF0F6091E4
:10521000F00F7091F10F86E696E00E948732409180
:10522000F20F5091F30F6091F40F7091F50F83E638
:1052300096E00E9487324091F60F5091F70F6091EF
:10524000F80F7091F90F80E696E00E948732409146
:10525000FA0F5091FB0F6091FC0F7091FD0F8DE5DF
:1052600096E00E9487322FC0E4E8F1E18491882320
:1052700041F09091C00095FFFCCF8093C60031961D
:10528000F5CFEEE6F6E08491882341F09091C000DE
:1052900095FFFCCF8093C6003196F5CF8091C0007A
:1052A00085FFFCCF8AE08093C600E4E8F1E18491B9
:1052B000882309F4A8CF9091C00095FFFCCF80937C
:1052C000C6003196F4CF8091C00085FFFCCF8AE004
:1052D0008093C600CC2389F14091FE0F5091FF0FBF
:1052E00060910010709101108AE396E00E9487326D
:1052F00040910210509103106091041070910510BC
:1053000087E396E00E948732409106105091071083
:10531000609108107091091084E396E00E94873232
:1053200040910A1050910B1060910C1070910D106B
:1053300081E396E00E9487322FC0E4E8F1E1849196
:10534000882341F09091C00095FFFCCF8093C60068
:105350003196F5CFE3E4F6E08491882341F0909113
:10536000C00095FFFCCF8093C6003196F5CF8091A9
:10537000C00085FFFCCF8AE08093C600E4E8F1E13D
:105380008491882309F4A8CF9091C00095FFFCCFA9
:105390008093C6003196F4CF8091C00085FFFCCF8A
:1053A0008AE08093C600CC2389F14091DE0F5091B2
:1053B000DF0F6091E00F7091E10F8AE096E00E94AC
:1053C00098324091E20F5091E30F6091E40F709199
:1053D000E50F87E096E00E9498324091E60F5091E9
:1053E000E70F6091E80F7091E90F84E096E00E946A
:1053F00098324091EA0F5091EB0F6091EC0F709151
:10540000ED0F81E096E00E9498322FC0E4E8F1E1D0
:105410008491882341F09091C00095FFFCCF809348
:10542000C6003196F5CFE3E1F6E08491882341F0A0
:105430009091C00095FFFCCF8093C6003196F5CFC8
:105440008091C00085FFFCCF8AE08093C600E4E82D
:10545000F1E18491882309F4A8CF9091C00095FFD1
:10546000FCCF8093C6003196F4CF8091C00085FFB9
:10547000FCCF8AE08093C600CC2329F14091D60F5F
:105480005091D70F6091D80F7091D90F86EC95E0AD
:105490000E9487324091D20F5091D30F6091D40F68
:1054A0007091D50F83EC95E00E9487324091CE0F2A
:1054B0005091CF0F6091D00F7091D10F80EC95E09B
:1054C0000E9487322FC0E4E8F1E18491882341F003
:1054D0009091C00095FFFCCF8093C6003196F5CF28
:1054E000EFECF5E08491882341F09091C00095FFA6
:1054F000FCCF8093C6003196F5CF8091C00085FF28
:10550000FCCF8AE08093C600E4E8F1E1849188232F
:1055100009F4B4CF9091C00095FFFCCF8093C600F2
:105520003196F4CF8091C00085FFFCCF8AE0809354
:10553000C600CC2309F443C04091DA0F5091DB0F31
:105540006091DC0F7091DD0F84E095E0E0D7409131
:10555000BE0F5091BF0F6091C00F7091C10F81E0DD
:1055600095E0D5D740910E1050910F10609110101A
:10557000709111108EEF94E0DBD74091CA0F5091DB
:10558000CB0F6091CC0F7091CD0F8BEF94E0BFD714
:105590004091C60F5091C70F6091C80F7091C90F0D
:1055A00088EF94E0B4D74091C20F5091C30F60913F
:1055B000C40F7091C50F85EF94E0A9D72FC0E4E820
:1055C000F1E18491882341F09091C00095FFFCCFD8
:1055D0008093C6003196F5CFEDE0F5E08491882305
:1055E00041F09091C00095FFFCCF8093C6003196AA
:1055F000F5CF8091C00085FFFCCF8AE08093C60084
:10560000E4E8F1E18491882309F496CF9091C000F9
:1056100095FFFCCF8093C6003196F4CF8091C000F7
:1056200085FFFCCF8AE08093C600CC2311F1409126
:1056300045065091460660914706709148068AEDEE
:1056400094E065D74091490650914A0660914B0617
:1056500070914C0687ED94E05AD740914D065091D9
:105660004E0660914F067091500684ED94E04FD73E
:105670002FC0E4E8F1E18491882341F09091C000CB
:1056800095FFFCCF8093C6003196F5CFE3EEF4E0B2
:105690008491882341F09091C00095FFFCCF8093C6
:1056A000C6003196F5CF8091C00085FFFCCF8AE01F
:1056B0008093C600E4E8F1E18491882309F4B7CF30
:1056C0009091C00095FFFCCF8093C6003196F4CF37
:1056D0008091C00085FFFCCF8AE08093C600CC2378
:1056E000B1F060912A1770912B178CEA94E0FED6E6
:1056F000609128177091291789EA94E0F7D6609194
:1057000026177091271786EA94E0F0D62FC0E4E8B8
:10571000F1E18491882341F09091C00095FFFCCF86
:105720008093C6003196F5CFE8EBF4E084918823AE
:1057300041F09091C00095FFFCCF8093C600319658
:10574000F5CF8091C00085FFFCCF8AE08093C60032
:10575000E4E8F1E18491882309F4C3CF9091C0007B
:1057600095FFFCCF8093C6003196F4CF8091C000A6
:1057700085FFFCCF8AE08093C600CC23B1F0609116
:105780002417709125178AE994E0B0D6609122170A
:105790007091231787E994E0A9D660912017709142
:1057A000211784E994E0A2D60DC0E4E8F1E18491E8
:1057B000882329F39091C00095FFFCCF8093C60009
:1057C0003196F5CF8091C00085FFFCCF8AE08093B1
:1057D000C600CC2309F43CC040918E0250918F0248
:1057E00060919002709191028DE794E090D6609163
:1057F0008A0270918B0280918C0290918D020E949E
:105800004FBEAB01BC018AE794E081D6609186026D
:105810007091870280918802909189020E945BBEFC
:10582000AB01BC0187E794E072D6409182025091AF
:105830008302609184027091850284E794E067D6C8
:1058400060910F027091100281E794E04FD62FC053
:10585000E4E8F1E18491882341F09091C00095FF44
:10586000FCCF8093C6003196F5CFE6E8F4E0849152
:10587000882341F09091C00095FFFCCF8093C60033
:105880003196F5CF8091C00085FFFCCF8AE08093F0
:10589000C600E4E8F1E18491882309F49DCF90915A
:1058A000C00095FFFCCF8093C6003196F4CF809165
:1058B000C00085FFFCCF8AE08093C600CC2351F165
:1058C00040919A0250919B0260919C0270919D02BE
:1058D00088E694E01CD660919602709197028091C0
:1058E0009802909199020E944FBEAB01BC0185E6DF
:1058F00094E00DD66091920270919302809194028F
:10590000909195020E945BBEAB01BC0182E694E0DF
:10591000FED50DC0E4E8F1E18491882389F29091ED
:10592000C00095FFFCCF8093C6003196F5CF8091E3
:10593000C00085FFFCCF8AE08093C600CC2361F0D5
:1059400040913502509136026091370270913802D1
:105950008CE394E0DCD545C0E4E8F1E18491882350
:1059600041F09091C00095FFFCCF8093C600319626
:10597000F5CFEFE4F4E08491882341F09091C000EA
:1059800095FFFCCF8093C6003196F5CF80915D06E0
:10599000811103C0E5E4F4E00CC08091C00085FFF4
:1059A000FCCF0EC09091C00095FFFCCF8093C60045
:1059B000319684918111F6CF8091C00085FFFCCF94
:1059C0008AE08093C600E4E8F1E18491882309F439
:1059D000B7CF9091C00095FFFCCF8093C600319661
:1059E000F4CF8091C00085FFFCCF8AE08093C60091
:1059F00080915D06811123C0C1110DC0E4E8F1E181
:105A000007C09091C00095FFFCCF8093C6003196EF
:105A100084918111F6CFE2E3F4E007C09091C000D9
:105A200095FFFCCF8093C600319684918111F6CF0B
:105A30008091C00085FFFCCF8AE08093C600CC2314
:105A400061F04091210650912206609123067091E9
:105A5000240684E194E05BD52EC0E4E8F1E1849172
:105A6000882341F09091C00095FFFCCF8093C60041
:105A70003196F5CFEDE1F4E08491882341F09091E7
:105A8000C00095FFFCCF8093C6003196F5CF809182
:105A9000C00085FFFCCF8AE08093C600E4E8F1E116
:105AA0008491882371F29091C00095FFFCCF809380
:105AB000C6003196F5CF8091C00085FFFCCF8AE00B
:105AC0008093C600CF910895CF92DF92EF92FF921C
:105AD0000F931F93CF93DF93CDB7DEB763970FB6C6
